{
  "contractName": "FakeNews",
  "abi": [
    {
      "inputs": [],
      "stateMutability": "nonpayable",
      "type": "constructor"
    },
    {
      "anonymous": false,
      "inputs": [
        {
          "indexed": true,
          "internalType": "address",
          "name": "owner",
          "type": "address"
        },
        {
          "indexed": true,
          "internalType": "address",
          "name": "spender",
          "type": "address"
        },
        {
          "indexed": false,
          "internalType": "uint256",
          "name": "value",
          "type": "uint256"
        }
      ],
      "name": "Approval",
      "type": "event"
    },
    {
      "anonymous": false,
      "inputs": [
        {
          "indexed": true,
          "internalType": "address",
          "name": "previousOwner",
          "type": "address"
        },
        {
          "indexed": true,
          "internalType": "address",
          "name": "newOwner",
          "type": "address"
        }
      ],
      "name": "OwnershipTransferred",
      "type": "event"
    },
    {
      "anonymous": false,
      "inputs": [
        {
          "indexed": true,
          "internalType": "address",
          "name": "from",
          "type": "address"
        },
        {
          "indexed": true,
          "internalType": "address",
          "name": "to",
          "type": "address"
        },
        {
          "indexed": false,
          "internalType": "uint256",
          "name": "value",
          "type": "uint256"
        }
      ],
      "name": "Transfer",
      "type": "event"
    },
    {
      "anonymous": false,
      "inputs": [
        {
          "indexed": true,
          "internalType": "uint256",
          "name": "_newsId",
          "type": "uint256"
        }
      ],
      "name": "votedEvent",
      "type": "event"
    },
    {
      "inputs": [
        {
          "internalType": "address",
          "name": "owner",
          "type": "address"
        },
        {
          "internalType": "address",
          "name": "spender",
          "type": "address"
        }
      ],
      "name": "allowance",
      "outputs": [
        {
          "internalType": "uint256",
          "name": "",
          "type": "uint256"
        }
      ],
      "stateMutability": "view",
      "type": "function",
      "constant": true
    },
    {
      "inputs": [
        {
          "internalType": "address",
          "name": "spender",
          "type": "address"
        },
        {
          "internalType": "uint256",
          "name": "amount",
          "type": "uint256"
        }
      ],
      "name": "approve",
      "outputs": [
        {
          "internalType": "bool",
          "name": "",
          "type": "bool"
        }
      ],
      "stateMutability": "nonpayable",
      "type": "function"
    },
    {
      "inputs": [
        {
          "internalType": "address",
          "name": "account",
          "type": "address"
        }
      ],
      "name": "balanceOf",
      "outputs": [
        {
          "internalType": "uint256",
          "name": "",
          "type": "uint256"
        }
      ],
      "stateMutability": "view",
      "type": "function",
      "constant": true
    },
    {
      "inputs": [],
      "name": "contractOwner",
      "outputs": [
        {
          "internalType": "address",
          "name": "",
          "type": "address"
        }
      ],
      "stateMutability": "view",
      "type": "function",
      "constant": true
    },
    {
      "inputs": [],
      "name": "decimals",
      "outputs": [
        {
          "internalType": "uint8",
          "name": "",
          "type": "uint8"
        }
      ],
      "stateMutability": "view",
      "type": "function",
      "constant": true
    },
    {
      "inputs": [
        {
          "internalType": "address",
          "name": "spender",
          "type": "address"
        },
        {
          "internalType": "uint256",
          "name": "subtractedValue",
          "type": "uint256"
        }
      ],
      "name": "decreaseAllowance",
      "outputs": [
        {
          "internalType": "bool",
          "name": "",
          "type": "bool"
        }
      ],
      "stateMutability": "nonpayable",
      "type": "function"
    },
    {
      "inputs": [
        {
          "internalType": "address",
          "name": "spender",
          "type": "address"
        },
        {
          "internalType": "uint256",
          "name": "addedValue",
          "type": "uint256"
        }
      ],
      "name": "increaseAllowance",
      "outputs": [
        {
          "internalType": "bool",
          "name": "",
          "type": "bool"
        }
      ],
      "stateMutability": "nonpayable",
      "type": "function"
    },
    {
      "inputs": [],
      "name": "incrementToken",
      "outputs": [
        {
          "internalType": "uint256",
          "name": "",
          "type": "uint256"
        }
      ],
      "stateMutability": "view",
      "type": "function",
      "constant": true
    },
    {
      "inputs": [
        {
          "internalType": "address",
          "name": "to",
          "type": "address"
        },
        {
          "internalType": "uint256",
          "name": "amount",
          "type": "uint256"
        }
      ],
      "name": "mint",
      "outputs": [],
      "stateMutability": "nonpayable",
      "type": "function"
    },
    {
      "inputs": [],
      "name": "name",
      "outputs": [
        {
          "internalType": "string",
          "name": "",
          "type": "string"
        }
      ],
      "stateMutability": "view",
      "type": "function",
      "constant": true
    },
    {
      "inputs": [],
      "name": "newsCount",
      "outputs": [
        {
          "internalType": "uint256",
          "name": "",
          "type": "uint256"
        }
      ],
      "stateMutability": "view",
      "type": "function",
      "constant": true
    },
    {
      "inputs": [
        {
          "internalType": "uint256",
          "name": "",
          "type": "uint256"
        },
        {
          "internalType": "uint256",
          "name": "",
          "type": "uint256"
        }
      ],
      "name": "newsVoterMappings",
      "outputs": [
        {
          "internalType": "address",
          "name": "",
          "type": "address"
        }
      ],
      "stateMutability": "view",
      "type": "function",
      "constant": true
    },
    {
      "inputs": [
        {
          "internalType": "uint256",
          "name": "",
          "type": "uint256"
        }
      ],
      "name": "newses",
      "outputs": [
        {
          "internalType": "uint256",
          "name": "id",
          "type": "uint256"
        },
        {
          "internalType": "string",
          "name": "name",
          "type": "string"
        },
        {
          "internalType": "uint256",
          "name": "voteCount",
          "type": "uint256"
        },
        {
          "internalType": "uint256",
          "name": "upVote",
          "type": "uint256"
        },
        {
          "internalType": "uint256",
          "name": "downVote",
          "type": "uint256"
        },
        {
          "internalType": "string",
          "name": "verdict",
          "type": "string"
        }
      ],
      "stateMutability": "view",
      "type": "function",
      "constant": true
    },
    {
      "inputs": [],
      "name": "owner",
      "outputs": [
        {
          "internalType": "address",
          "name": "",
          "type": "address"
        }
      ],
      "stateMutability": "view",
      "type": "function",
      "constant": true
    },
    {
      "inputs": [],
      "name": "renounceOwnership",
      "outputs": [],
      "stateMutability": "nonpayable",
      "type": "function"
    },
    {
      "inputs": [],
      "name": "rewardValue",
      "outputs": [
        {
          "internalType": "uint256",
          "name": "",
          "type": "uint256"
        }
      ],
      "stateMutability": "view",
      "type": "function",
      "constant": true
    },
    {
      "inputs": [],
      "name": "symbol",
      "outputs": [
        {
          "internalType": "string",
          "name": "",
          "type": "string"
        }
      ],
      "stateMutability": "view",
      "type": "function",
      "constant": true
    },
    {
      "inputs": [],
      "name": "totalSupply",
      "outputs": [
        {
          "internalType": "uint256",
          "name": "",
          "type": "uint256"
        }
      ],
      "stateMutability": "view",
      "type": "function",
      "constant": true
    },
    {
      "inputs": [
        {
          "internalType": "address",
          "name": "to",
          "type": "address"
        },
        {
          "internalType": "uint256",
          "name": "amount",
          "type": "uint256"
        }
      ],
      "name": "transfer",
      "outputs": [
        {
          "internalType": "bool",
          "name": "",
          "type": "bool"
        }
      ],
      "stateMutability": "nonpayable",
      "type": "function"
    },
    {
      "inputs": [
        {
          "internalType": "address",
          "name": "from",
          "type": "address"
        },
        {
          "internalType": "address",
          "name": "to",
          "type": "address"
        },
        {
          "internalType": "uint256",
          "name": "amount",
          "type": "uint256"
        }
      ],
      "name": "transferFrom",
      "outputs": [
        {
          "internalType": "bool",
          "name": "",
          "type": "bool"
        }
      ],
      "stateMutability": "nonpayable",
      "type": "function"
    },
    {
      "inputs": [
        {
          "internalType": "address",
          "name": "newOwner",
          "type": "address"
        }
      ],
      "name": "transferOwnership",
      "outputs": [],
      "stateMutability": "nonpayable",
      "type": "function"
    },
    {
      "inputs": [
        {
          "internalType": "address",
          "name": "",
          "type": "address"
        },
        {
          "internalType": "uint256",
          "name": "",
          "type": "uint256"
        }
      ],
      "name": "voters",
      "outputs": [
        {
          "internalType": "uint256",
          "name": "",
          "type": "uint256"
        }
      ],
      "stateMutability": "view",
      "type": "function",
      "constant": true
    },
    {
      "inputs": [
        {
          "internalType": "uint256",
          "name": "_newsId",
          "type": "uint256"
        }
      ],
      "name": "vote",
      "outputs": [],
      "stateMutability": "nonpayable",
      "type": "function"
    },
    {
      "inputs": [
        {
          "internalType": "uint256",
          "name": "_newsId",
          "type": "uint256"
        }
      ],
      "name": "incentivizeVoter",
      "outputs": [],
      "stateMutability": "nonpayable",
      "type": "function"
    },
    {
      "inputs": [
        {
          "internalType": "uint256",
          "name": "_newsId",
          "type": "uint256"
        }
      ],
      "name": "getTotalAmountNeeded",
      "outputs": [
        {
          "internalType": "uint256",
          "name": "",
          "type": "uint256"
        }
      ],
      "stateMutability": "view",
      "type": "function",
      "constant": true
    },
    {
      "inputs": [
        {
          "internalType": "uint256",
          "name": "_newsId",
          "type": "uint256"
        }
      ],
      "name": "downVote",
      "outputs": [],
      "stateMutability": "nonpayable",
      "type": "function"
    },
    {
      "inputs": [
        {
          "internalType": "uint256",
          "name": "_newsId",
          "type": "uint256"
        }
      ],
      "name": "result",
      "outputs": [],
      "stateMutability": "nonpayable",
      "type": "function"
    },
    {
      "inputs": [],
      "name": "getTokens",
      "outputs": [
        {
          "internalType": "uint256",
          "name": "",
          "type": "uint256"
        }
      ],
      "stateMutability": "view",
      "type": "function",
      "constant": true
    },
    {
      "inputs": [],
      "name": "isOwnerContract",
      "outputs": [
        {
          "internalType": "bool",
          "name": "",
          "type": "bool"
        }
      ],
      "stateMutability": "view",
      "type": "function",
      "constant": true
    },
    {
      "inputs": [],
      "name": "getContractOwner",
      "outputs": [
        {
          "internalType": "address",
          "name": "",
          "type": "address"
        }
      ],
      "stateMutability": "view",
      "type": "function",
      "constant": true
    },
    {
      "inputs": [],
      "name": "caller",
      "outputs": [
        {
          "internalType": "address",
          "name": "",
          "type": "address"
        }
      ],
      "stateMutability": "view",
      "type": "function",
      "constant": true
    }
  ],
  "bytecode": "0x60806040523480156200001157600080fd5b506040518060400160405280600881526020017f53414d41434841520000000000000000000000000000000000000000000000008152506040518060400160405280600281526020017f534d00000000000000000000000000000000000000000000000000000000000081525081600390816200008f91906200084a565b508060049081620000a191906200084a565b505050620000c4620000b86200028e60201b60201c565b6200029660201b60201c565b6200010233620000d96200035c60201b60201c565b600a620000e7919062000ac1565b612710620000f6919062000b12565b6200036560201b60201c565b33600660006101000a81548173ffffffffffffffffffffffffffffffffffffffff021916908373ffffffffffffffffffffffffffffffffffffffff160217905550620001536200035c60201b60201c565b600a62000161919062000ac1565b60016200016f919062000b12565b600b81905550620001856200035c60201b60201c565b600a62000193919062000ac1565b612710620001a2919062000b12565b600c81905550620001ee6040518060400160405280601a81526020017f5472756d70206c6f737420696e2074686520456c656374696f6e000000000000815250620004d260201b60201c565b620002186040518060600160405280602f815260200162003820602f9139620004d260201b60201c565b6200025e6040518060400160405280601d81526020017f496e646961206c6f73742074686520542d323020576f726c6420437570000000815250620004d260201b60201c565b62000288604051806060016040528060388152602001620037e860389139620004d260201b60201c565b62000c96565b600033905090565b6000600560009054906101000a900473ffffffffffffffffffffffffffffffffffffffff16905081600560006101000a81548173ffffffffffffffffffffffffffffffffffffffff021916908373ffffffffffffffffffffffffffffffffffffffff1602179055508173ffffffffffffffffffffffffffffffffffffffff168173ffffffffffffffffffffffffffffffffffffffff167f8be0079c531659141344cd1fd0a4f28419497f9722a3daafe3b4186f6b6457e060405160405180910390a35050565b60006012905090565b600073ffffffffffffffffffffffffffffffffffffffff168273ffffffffffffffffffffffffffffffffffffffff1603620003d7576040517f08c379a0000000000000000000000000000000000000000000000000000000008152600401620003ce9062000bbe565b60405180910390fd5b620003eb60008383620005c660201b60201c565b8060026000828254620003ff919062000be0565b92505081905550806000808473ffffffffffffffffffffffffffffffffffffffff1673ffffffffffffffffffffffffffffffffffffffff168152602001908152602001600020600082825401925050819055508173ffffffffffffffffffffffffffffffffffffffff16600073ffffffffffffffffffffffffffffffffffffffff167fddf252ad1be2c89b69c2b068fc378daa952ba7f163c4a11628f55a4df523b3ef83604051620004b2919062000c2c565b60405180910390a3620004ce60008383620005cb60201b60201c565b5050565b600a6000815480929190620004e79062000c49565b91905055506040518060c00160405280600a5481526020018281526020016000815260200160008152602001600081526020016040518060400160405280600d81526020017f54656e7461697665204e6577730000000000000000000000000000000000000081525081525060086000600a5481526020019081526020016000206000820151816000015560208201518160010190816200058991906200084a565b5060408201518160020155606082015181600301556080820151816004015560a0820151816005019081620005bf91906200084a565b5090505050565b505050565b505050565b600081519050919050565b7f4e487b7100000000000000000000000000000000000000000000000000000000600052604160045260246000fd5b7f4e487b7100000000000000000000000000000000000000000000000000000000600052602260045260246000fd5b600060028204905060018216806200065257607f821691505b6020821081036200066857620006676200060a565b5b50919050565b60008190508160005260206000209050919050565b60006020601f8301049050919050565b600082821b905092915050565b600060088302620006d27fffffffffffffffffffffffffffffffffffffffffffffffffffffffffffffffff8262000693565b620006de868362000693565b95508019841693508086168417925050509392505050565b6000819050919050565b6000819050919050565b60006200072b620007256200071f84620006f6565b62000700565b620006f6565b9050919050565b6000819050919050565b62000747836200070a565b6200075f620007568262000732565b848454620006a0565b825550505050565b600090565b6200077662000767565b620007838184846200073c565b505050565b5b81811015620007ab576200079f6000826200076c565b60018101905062000789565b5050565b601f821115620007fa57620007c4816200066e565b620007cf8462000683565b81016020851015620007df578190505b620007f7620007ee8562000683565b83018262000788565b50505b505050565b600082821c905092915050565b60006200081f60001984600802620007ff565b1980831691505092915050565b60006200083a83836200080c565b9150826002028217905092915050565b6200085582620005d0565b67ffffffffffffffff811115620008715762000870620005db565b5b6200087d825462000639565b6200088a828285620007af565b600060209050601f831160018114620008c25760008415620008ad578287015190505b620008b985826200082c565b86555062000929565b601f198416620008d2866200066e565b60005b82811015620008fc57848901518255600182019150602085019450602081019050620008d5565b868310156200091c578489015162000918601f8916826200080c565b8355505b6001600288020188555050505b505050505050565b7f4e487b7100000000000000000000000000000000000000000000000000000000600052601160045260246000fd5b60008160011c9050919050565b6000808291508390505b6001851115620009bf5780860481111562000997576200099662000931565b5b6001851615620009a75780820291505b8081029050620009b78562000960565b945062000977565b94509492505050565b600082620009da576001905062000aad565b81620009ea576000905062000aad565b816001811462000a03576002811462000a0e5762000a44565b600191505062000aad565b60ff84111562000a235762000a2262000931565b5b8360020a91508482111562000a3d5762000a3c62000931565b5b5062000aad565b5060208310610133831016604e8410600b841016171562000a7e5782820a90508381111562000a785762000a7762000931565b5b62000aad565b62000a8d84848460016200096d565b9250905081840481111562000aa75762000aa662000931565b5b81810290505b9392505050565b600060ff82169050919050565b600062000ace82620006f6565b915062000adb8362000ab4565b925062000b0a7fffffffffffffffffffffffffffffffffffffffffffffffffffffffffffffffff8484620009c8565b905092915050565b600062000b1f82620006f6565b915062000b2c83620006f6565b925082820262000b3c81620006f6565b9150828204841483151762000b565762000b5562000931565b5b5092915050565b600082825260208201905092915050565b7f45524332303a206d696e7420746f20746865207a65726f206164647265737300600082015250565b600062000ba6601f8362000b5d565b915062000bb38262000b6e565b602082019050919050565b6000602082019050818103600083015262000bd98162000b97565b9050919050565b600062000bed82620006f6565b915062000bfa83620006f6565b925082820190508082111562000c155762000c1462000931565b5b92915050565b62000c2681620006f6565b82525050565b600060208201905062000c43600083018462000c1b565b92915050565b600062000c5682620006f6565b91507fffffffffffffffffffffffffffffffffffffffffffffffffffffffffffffffff820362000c8b5762000c8a62000931565b5b600182019050919050565b612b428062000ca66000396000f3fe608060405234801561001057600080fd5b50600436106101e55760003560e01c8063715018a61161010f578063ce606ee0116100a2578063f1202e0c11610071578063f1202e0c146105aa578063f2fde38b146105df578063f6a800ee146105fb578063fc9c8d3914610619576101e5565b8063ce606ee014610510578063dd615d761461052e578063dd62ed3e1461055e578063de7546c91461058e576101e5565b80639981d6d3116100de5780639981d6d314610474578063a457c2d714610492578063a9059cbb146104c2578063aa6ca808146104f2576101e5565b8063715018a614610410578063779ea4681461041a5780638da5cb5b1461043857806395d89b4114610456576101e5565b8063313ce56711610187578063442890d511610156578063442890d5146103625780635c134d661461038057806362746bd3146103b057806370a08231146103e0576101e5565b8063313ce567146102dc57806339509351146102fa5780633c5940591461032a57806340c10f1914610346576101e5565b806312c7df73116101c357806312c7df731461025457806318160ddd146102725780631ae9392d1461029057806323b872dd146102ac576101e5565b80630121b93f146101ea57806306fdde0314610206578063095ea7b314610224575b600080fd5b61020460048036038101906101ff9190611d1c565b610637565b005b61020e6108d1565b60405161021b9190611dd9565b60405180910390f35b61023e60048036038101906102399190611e59565b610963565b60405161024b9190611eb4565b60405180910390f35b61025c610986565b6040516102699190611ede565b60405180910390f35b61027a61098c565b6040516102879190611ede565b60405180910390f35b6102aa60048036038101906102a59190611d1c565b610996565b005b6102c660048036038101906102c19190611ef9565b610c30565b6040516102d39190611eb4565b60405180910390f35b6102e4610c5f565b6040516102f19190611f68565b60405180910390f35b610314600480360381019061030f9190611e59565b610c68565b6040516103219190611eb4565b60405180910390f35b610344600480360381019061033f9190611d1c565b610c9f565b005b610360600480360381019061035b9190611e59565b610e21565b005b61036a610e37565b6040516103779190611f92565b60405180910390f35b61039a60048036038101906103959190611e59565b610e61565b6040516103a79190611ede565b60405180910390f35b6103ca60048036038101906103c59190611d1c565b610e92565b6040516103d79190611ede565b60405180910390f35b6103fa60048036038101906103f59190611fad565b610ebf565b6040516104079190611ede565b60405180910390f35b610418610f07565b005b610422610f1b565b60405161042f9190611eb4565b60405180910390f35b610440610f83565b60405161044d9190611f92565b60405180910390f35b61045e610fad565b60405161046b9190611dd9565b60405180910390f35b61047c61103f565b6040516104899190611ede565b60405180910390f35b6104ac60048036038101906104a79190611e59565b611045565b6040516104b99190611eb4565b60405180910390f35b6104dc60048036038101906104d79190611e59565b6110bc565b6040516104e99190611eb4565b60405180910390f35b6104fa6110df565b6040516105079190611ede565b60405180910390f35b6105186110ef565b6040516105259190611f92565b60405180910390f35b61054860048036038101906105439190611fda565b611115565b6040516105559190611f92565b60405180910390f35b6105786004803603810190610573919061201a565b611163565b6040516105859190611ede565b60405180910390f35b6105a860048036038101906105a39190611d1c565b6111ea565b005b6105c460048036038101906105bf9190611d1c565b61138d565b6040516105d69695949392919061205a565b60405180910390f35b6105f960048036038101906105f49190611fad565b6114d9565b005b61060361155c565b6040516106109190611ede565b60405180910390f35b610621611562565b60405161062e9190611f92565b60405180910390f35b80336000600190506000600760008473ffffffffffffffffffffffffffffffffffffffff1673ffffffffffffffffffffffffffffffffffffffff1681526020019081526020016000208054806020026020016040519081016040528092919081815260200182805480156106ca57602002820191906000526020600020905b8154815260200190600101908083116106b6575b505050505090506000815111156107225760005b815181101561072057848282815181106106fb576106fa6120c9565b5b60200260200101510361070d57600092505b808061071890612127565b9150506106de565b505b81610762576040517f08c379a0000000000000000000000000000000000000000000000000000000008152600401610759906121bb565b60405180910390fd5b600760003373ffffffffffffffffffffffffffffffffffffffff1673ffffffffffffffffffffffffffffffffffffffff16815260200190815260200160002085908060018154018082558091505060019003906000526020600020016000909190919091505560096000868152602001908152602001600020339080600181540180825580915050600190039060005260206000200160009091909190916101000a81548173ffffffffffffffffffffffffffffffffffffffff021916908373ffffffffffffffffffffffffffffffffffffffff16021790555060086000868152602001908152602001600020600201600081548092919061086390612127565b919050555060086000868152602001908152602001600020600301600081548092919061088f90612127565b919050555061089d85610c9f565b847ffff3c900d938d21d0990d786e819f29b8d05c1ef587b462b939609625b684b1660405160405180910390a25050505050565b6060600380546108e09061220a565b80601f016020809104026020016040519081016040528092919081815260200182805461090c9061220a565b80156109595780601f1061092e57610100808354040283529160200191610959565b820191906000526020600020905b81548152906001019060200180831161093c57829003601f168201915b5050505050905090565b60008061096e61156a565b905061097b818585611572565b600191505092915050565b600b5481565b6000600254905090565b80336000600190506000600760008473ffffffffffffffffffffffffffffffffffffffff1673ffffffffffffffffffffffffffffffffffffffff168152602001908152602001600020805480602002602001604051908101604052809291908181526020018280548015610a2957602002820191906000526020600020905b815481526020019060010190808311610a15575b50505050509050600081511115610a815760005b8151811015610a7f5784828281518110610a5a57610a596120c9565b5b602002602001015103610a6c57600092505b8080610a7790612127565b915050610a3d565b505b81610ac1576040517f08c379a0000000000000000000000000000000000000000000000000000000008152600401610ab8906121bb565b60405180910390fd5b600760003373ffffffffffffffffffffffffffffffffffffffff1673ffffffffffffffffffffffffffffffffffffffff16815260200190815260200160002085908060018154018082558091505060019003906000526020600020016000909190919091505560096000868152602001908152602001600020339080600181540180825580915050600190039060005260206000200160009091909190916101000a81548173ffffffffffffffffffffffffffffffffffffffff021916908373ffffffffffffffffffffffffffffffffffffffff160217905550600860008681526020019081526020016000206002016000815480929190610bc290612127565b9190505550600860008681526020019081526020016000206004016000815480929190610bee90612127565b9190505550610bfc85610c9f565b847ffff3c900d938d21d0990d786e819f29b8d05c1ef587b462b939609625b684b1660405160405180910390a25050505050565b600080610c3b61156a565b9050610c4885828561173b565b610c538585856117c7565b60019150509392505050565b60006012905090565b600080610c7361156a565b9050610c94818585610c858589611163565b610c8f919061223b565b611572565b600191505092915050565b600860008281526020019081526020016000206004015460086000838152602001908152602001600020600301541115610d31576040518060400160405280600981526020017f5265616c204e6577730000000000000000000000000000000000000000000000815250600860008381526020019081526020016000206005019081610d2b919061244a565b50610e1e565b600860008281526020019081526020016000206004015460086000838152602001908152602001600020600301541015610dc3576040518060400160405280600981526020017f46616b65204e6577730000000000000000000000000000000000000000000000815250600860008381526020019081526020016000206005019081610dbd919061244a565b50610e1d565b6040518060400160405280600e81526020017f54656e746174697665204e657773000000000000000000000000000000000000815250600860008381526020019081526020016000206005019081610e1b919061244a565b505b5b50565b610e29611a3d565b610e338282611abb565b5050565b6000600660009054906101000a900473ffffffffffffffffffffffffffffffffffffffff16905090565b60076020528160005260406000208181548110610e7d57600080fd5b90600052602060002001600091509150505481565b6000600b546009600084815260200190815260200160002080549050610eb8919061251c565b9050919050565b60008060008373ffffffffffffffffffffffffffffffffffffffff1673ffffffffffffffffffffffffffffffffffffffff168152602001908152602001600020549050919050565b610f0f611a3d565b610f196000611c11565b565b6000600660009054906101000a900473ffffffffffffffffffffffffffffffffffffffff1673ffffffffffffffffffffffffffffffffffffffff163373ffffffffffffffffffffffffffffffffffffffff1603610f7b5760019050610f80565b600090505b90565b6000600560009054906101000a900473ffffffffffffffffffffffffffffffffffffffff16905090565b606060048054610fbc9061220a565b80601f0160208091040260200160405190810160405280929190818152602001828054610fe89061220a565b80156110355780601f1061100a57610100808354040283529160200191611035565b820191906000526020600020905b81548152906001019060200180831161101857829003601f168201915b5050505050905090565b600a5481565b60008061105061156a565b9050600061105e8286611163565b9050838110156110a3576040517f08c379a000000000000000000000000000000000000000000000000000000000815260040161109a906125d0565b60405180910390fd5b6110b08286868403611572565b60019250505092915050565b6000806110c761156a565b90506110d48185856117c7565b600191505092915050565b60006110ea33610ebf565b905090565b600660009054906101000a900473ffffffffffffffffffffffffffffffffffffffff1681565b6009602052816000526040600020818154811061113157600080fd5b906000526020600020016000915091509054906101000a900473ffffffffffffffffffffffffffffffffffffffff1681565b6000600160008473ffffffffffffffffffffffffffffffffffffffff1673ffffffffffffffffffffffffffffffffffffffff16815260200190815260200160002060008373ffffffffffffffffffffffffffffffffffffffff1673ffffffffffffffffffffffffffffffffffffffff16815260200190815260200160002054905092915050565b600660009054906101000a900473ffffffffffffffffffffffffffffffffffffffff1673ffffffffffffffffffffffffffffffffffffffff163373ffffffffffffffffffffffffffffffffffffffff161461127a576040517f08c379a00000000000000000000000000000000000000000000000000000000081526004016112719061263c565b60405180910390fd5b60006112a7600660009054906101000a900473ffffffffffffffffffffffffffffffffffffffff16610ebf565b905060006112b483610e92565b90508082116112f7576112f6600660009054906101000a900473ffffffffffffffffffffffffffffffffffffffff1682600c546112f1919061223b565b610e21565b5b60005b6009600085815260200190815260200160002080549050811015611387576113736009600086815260200190815260200160002082815481106113405761133f6120c9565b5b9060005260206000200160009054906101000a900473ffffffffffffffffffffffffffffffffffffffff16600b546110bc565b50808061137f90612127565b9150506112fa565b50505050565b60086020528060005260406000206000915090508060000154908060010180546113b69061220a565b80601f01602080910402602001604051908101604052809291908181526020018280546113e29061220a565b801561142f5780601f106114045761010080835404028352916020019161142f565b820191906000526020600020905b81548152906001019060200180831161141257829003601f168201915b5050505050908060020154908060030154908060040154908060050180546114569061220a565b80601f01602080910402602001604051908101604052809291908181526020018280546114829061220a565b80156114cf5780601f106114a4576101008083540402835291602001916114cf565b820191906000526020600020905b8154815290600101906020018083116114b257829003601f168201915b5050505050905086565b6114e1611a3d565b600073ffffffffffffffffffffffffffffffffffffffff168173ffffffffffffffffffffffffffffffffffffffff1603611550576040517f08c379a0000000000000000000000000000000000000000000000000000000008152600401611547906126ce565b60405180910390fd5b61155981611c11565b50565b600c5481565b600033905090565b600033905090565b600073ffffffffffffffffffffffffffffffffffffffff168373ffffffffffffffffffffffffffffffffffffffff16036115e1576040517f08c379a00000000000000000000000000000000000000000000000000000000081526004016115d890612760565b60405180910390fd5b600073ffffffffffffffffffffffffffffffffffffffff168273ffffffffffffffffffffffffffffffffffffffff1603611650576040517f08c379a0000000000000000000000000000000000000000000000000000000008152600401611647906127f2565b60405180910390fd5b80600160008573ffffffffffffffffffffffffffffffffffffffff1673ffffffffffffffffffffffffffffffffffffffff16815260200190815260200160002060008473ffffffffffffffffffffffffffffffffffffffff1673ffffffffffffffffffffffffffffffffffffffff168152602001908152602001600020819055508173ffffffffffffffffffffffffffffffffffffffff168373ffffffffffffffffffffffffffffffffffffffff167f8c5be1e5ebec7d5bd14f71427d1e84f3dd0314c0f7b2291e5b200ac8c7c3b9258360405161172e9190611ede565b60405180910390a3505050565b60006117478484611163565b90507fffffffffffffffffffffffffffffffffffffffffffffffffffffffffffffffff81146117c157818110156117b3576040517f08c379a00000000000000000000000000000000000000000000000000000000081526004016117aa9061285e565b60405180910390fd5b6117c08484848403611572565b5b50505050565b600073ffffffffffffffffffffffffffffffffffffffff168373ffffffffffffffffffffffffffffffffffffffff1603611836576040517f08c379a000000000000000000000000000000000000000000000000000000000815260040161182d906128f0565b60405180910390fd5b600073ffffffffffffffffffffffffffffffffffffffff168273ffffffffffffffffffffffffffffffffffffffff16036118a5576040517f08c379a000000000000000000000000000000000000000000000000000000000815260040161189c90612982565b60405180910390fd5b6118b0838383611cd7565b60008060008573ffffffffffffffffffffffffffffffffffffffff1673ffffffffffffffffffffffffffffffffffffffff16815260200190815260200160002054905081811015611936576040517f08c379a000000000000000000000000000000000000000000000000000000000815260040161192d90612a14565b60405180910390fd5b8181036000808673ffffffffffffffffffffffffffffffffffffffff1673ffffffffffffffffffffffffffffffffffffffff16815260200190815260200160002081905550816000808573ffffffffffffffffffffffffffffffffffffffff1673ffffffffffffffffffffffffffffffffffffffff168152602001908152602001600020600082825401925050819055508273ffffffffffffffffffffffffffffffffffffffff168473ffffffffffffffffffffffffffffffffffffffff167fddf252ad1be2c89b69c2b068fc378daa952ba7f163c4a11628f55a4df523b3ef84604051611a249190611ede565b60405180910390a3611a37848484611cdc565b50505050565b611a4561156a565b73ffffffffffffffffffffffffffffffffffffffff16611a63610f83565b73ffffffffffffffffffffffffffffffffffffffff1614611ab9576040517f08c379a0000000000000000000000000000000000000000000000000000000008152600401611ab090612a80565b60405180910390fd5b565b600073ffffffffffffffffffffffffffffffffffffffff168273ffffffffffffffffffffffffffffffffffffffff1603611b2a576040517f08c379a0000000000000000000000000000000000000000000000000000000008152600401611b2190612aec565b60405180910390fd5b611b3660008383611cd7565b8060026000828254611b48919061223b565b92505081905550806000808473ffffffffffffffffffffffffffffffffffffffff1673ffffffffffffffffffffffffffffffffffffffff168152602001908152602001600020600082825401925050819055508173ffffffffffffffffffffffffffffffffffffffff16600073ffffffffffffffffffffffffffffffffffffffff167fddf252ad1be2c89b69c2b068fc378daa952ba7f163c4a11628f55a4df523b3ef83604051611bf99190611ede565b60405180910390a3611c0d60008383611cdc565b5050565b6000600560009054906101000a900473ffffffffffffffffffffffffffffffffffffffff16905081600560006101000a81548173ffffffffffffffffffffffffffffffffffffffff021916908373ffffffffffffffffffffffffffffffffffffffff1602179055508173ffffffffffffffffffffffffffffffffffffffff168173ffffffffffffffffffffffffffffffffffffffff167f8be0079c531659141344cd1fd0a4f28419497f9722a3daafe3b4186f6b6457e060405160405180910390a35050565b505050565b505050565b600080fd5b6000819050919050565b611cf981611ce6565b8114611d0457600080fd5b50565b600081359050611d1681611cf0565b92915050565b600060208284031215611d3257611d31611ce1565b5b6000611d4084828501611d07565b91505092915050565b600081519050919050565b600082825260208201905092915050565b60005b83811015611d83578082015181840152602081019050611d68565b60008484015250505050565b6000601f19601f8301169050919050565b6000611dab82611d49565b611db58185611d54565b9350611dc5818560208601611d65565b611dce81611d8f565b840191505092915050565b60006020820190508181036000830152611df38184611da0565b905092915050565b600073ffffffffffffffffffffffffffffffffffffffff82169050919050565b6000611e2682611dfb565b9050919050565b611e3681611e1b565b8114611e4157600080fd5b50565b600081359050611e5381611e2d565b92915050565b60008060408385031215611e7057611e6f611ce1565b5b6000611e7e85828601611e44565b9250506020611e8f85828601611d07565b9150509250929050565b60008115159050919050565b611eae81611e99565b82525050565b6000602082019050611ec96000830184611ea5565b92915050565b611ed881611ce6565b82525050565b6000602082019050611ef36000830184611ecf565b92915050565b600080600060608486031215611f1257611f11611ce1565b5b6000611f2086828701611e44565b9350506020611f3186828701611e44565b9250506040611f4286828701611d07565b9150509250925092565b600060ff82169050919050565b611f6281611f4c565b82525050565b6000602082019050611f7d6000830184611f59565b92915050565b611f8c81611e1b565b82525050565b6000602082019050611fa76000830184611f83565b92915050565b600060208284031215611fc357611fc2611ce1565b5b6000611fd184828501611e44565b91505092915050565b60008060408385031215611ff157611ff0611ce1565b5b6000611fff85828601611d07565b925050602061201085828601611d07565b9150509250929050565b6000806040838503121561203157612030611ce1565b5b600061203f85828601611e44565b925050602061205085828601611e44565b9150509250929050565b600060c08201905061206f6000830189611ecf565b81810360208301526120818188611da0565b90506120906040830187611ecf565b61209d6060830186611ecf565b6120aa6080830185611ecf565b81810360a08301526120bc8184611da0565b9050979650505050505050565b7f4e487b7100000000000000000000000000000000000000000000000000000000600052603260045260246000fd5b7f4e487b7100000000000000000000000000000000000000000000000000000000600052601160045260246000fd5b600061213282611ce6565b91507fffffffffffffffffffffffffffffffffffffffffffffffffffffffffffffffff8203612164576121636120f8565b5b600182019050919050565b7f4e6f7420612056616c696420566f746572000000000000000000000000000000600082015250565b60006121a5601183611d54565b91506121b08261216f565b602082019050919050565b600060208201905081810360008301526121d481612198565b9050919050565b7f4e487b7100000000000000000000000000000000000000000000000000000000600052602260045260246000fd5b6000600282049050600182168061222257607f821691505b602082108103612235576122346121db565b5b50919050565b600061224682611ce6565b915061225183611ce6565b9250828201905080821115612269576122686120f8565b5b92915050565b7f4e487b7100000000000000000000000000000000000000000000000000000000600052604160045260246000fd5b60008190508160005260206000209050919050565b60006020601f8301049050919050565b600082821b905092915050565b6000600883026123007fffffffffffffffffffffffffffffffffffffffffffffffffffffffffffffffff826122c3565b61230a86836122c3565b95508019841693508086168417925050509392505050565b6000819050919050565b600061234761234261233d84611ce6565b612322565b611ce6565b9050919050565b6000819050919050565b6123618361232c565b61237561236d8261234e565b8484546122d0565b825550505050565b600090565b61238a61237d565b612395818484612358565b505050565b5b818110156123b9576123ae600082612382565b60018101905061239b565b5050565b601f8211156123fe576123cf8161229e565b6123d8846122b3565b810160208510156123e7578190505b6123fb6123f3856122b3565b83018261239a565b50505b505050565b600082821c905092915050565b600061242160001984600802612403565b1980831691505092915050565b600061243a8383612410565b9150826002028217905092915050565b61245382611d49565b67ffffffffffffffff81111561246c5761246b61226f565b5b612476825461220a565b6124818282856123bd565b600060209050601f8311600181146124b457600084156124a2578287015190505b6124ac858261242e565b865550612514565b601f1984166124c28661229e565b60005b828110156124ea578489015182556001820191506020850194506020810190506124c5565b868310156125075784890151612503601f891682612410565b8355505b6001600288020188555050505b505050505050565b600061252782611ce6565b915061253283611ce6565b925082820261254081611ce6565b91508282048414831517612557576125566120f8565b5b5092915050565b7f45524332303a2064656372656173656420616c6c6f77616e63652062656c6f7760008201527f207a65726f000000000000000000000000000000000000000000000000000000602082015250565b60006125ba602583611d54565b91506125c58261255e565b604082019050919050565b600060208201905081810360008301526125e9816125ad565b9050919050565b7f4e6f7420416e20616f776e657220000000000000000000000000000000000000600082015250565b6000612626600e83611d54565b9150612631826125f0565b602082019050919050565b6000602082019050818103600083015261265581612619565b9050919050565b7f4f776e61626c653a206e6577206f776e657220697320746865207a65726f206160008201527f6464726573730000000000000000000000000000000000000000000000000000602082015250565b60006126b8602683611d54565b91506126c38261265c565b604082019050919050565b600060208201905081810360008301526126e7816126ab565b9050919050565b7f45524332303a20617070726f76652066726f6d20746865207a65726f2061646460008201527f7265737300000000000000000000000000000000000000000000000000000000602082015250565b600061274a602483611d54565b9150612755826126ee565b604082019050919050565b600060208201905081810360008301526127798161273d565b9050919050565b7f45524332303a20617070726f766520746f20746865207a65726f20616464726560008201527f7373000000000000000000000000000000000000000000000000000000000000602082015250565b60006127dc602283611d54565b91506127e782612780565b604082019050919050565b6000602082019050818103600083015261280b816127cf565b9050919050565b7f45524332303a20696e73756666696369656e7420616c6c6f77616e6365000000600082015250565b6000612848601d83611d54565b915061285382612812565b602082019050919050565b600060208201905081810360008301526128778161283b565b9050919050565b7f45524332303a207472616e736665722066726f6d20746865207a65726f20616460008201527f6472657373000000000000000000000000000000000000000000000000000000602082015250565b60006128da602583611d54565b91506128e58261287e565b604082019050919050565b60006020820190508181036000830152612909816128cd565b9050919050565b7f45524332303a207472616e7366657220746f20746865207a65726f206164647260008201527f6573730000000000000000000000000000000000000000000000000000000000602082015250565b600061296c602383611d54565b915061297782612910565b604082019050919050565b6000602082019050818103600083015261299b8161295f565b9050919050565b7f45524332303a207472616e7366657220616d6f756e742065786365656473206260008201527f616c616e63650000000000000000000000000000000000000000000000000000602082015250565b60006129fe602683611d54565b9150612a09826129a2565b604082019050919050565b60006020820190508181036000830152612a2d816129f1565b9050919050565b7f4f776e61626c653a2063616c6c6572206973206e6f7420746865206f776e6572600082015250565b6000612a6a602083611d54565b9150612a7582612a34565b602082019050919050565b60006020820190508181036000830152612a9981612a5d565b9050919050565b7f45524332303a206d696e7420746f20746865207a65726f206164647265737300600082015250565b6000612ad6601f83611d54565b9150612ae182612aa0565b602082019050919050565b60006020820190508181036000830152612b0581612ac9565b905091905056fea264697066735822122025af330c10e9b831393c08d670332aa78b86fc190b711f5100405d3013343aee64736f6c6343000811003343616e616469616e2070656f706c65206c6f736520746869657220747275737420696e207468656972205072696d65204d696e697374657252757373696120506c616e7320746f2064726f70204e75636c65617220776561706f6e73206f6e20556b7261696e65",
  "immutableReferences": {},
  "source": "pragma solidity ^0.8.17;\nimport \"./CNBCNews.sol\";\ncontract FakeNews is CNBCNews {\n    // Model a Candidate\n    struct News {\n        uint id;\n        string name;\n        uint voteCount;\n        uint upVote;\n        uint downVote;\n        string verdict;\n    }\n    \n    address public contractOwner;\n    // Store accounts that have voted\n    mapping(address => uint[]) public voters;\n\n    mapping(uint => News) public newses;\n    mapping(uint => address[]) public newsVoterMappings;\n    uint public newsCount;\n    uint public rewardValue;\n    uint public incrementToken;\n    event votedEvent (\n        uint indexed _newsId\n    );\n\nmodifier validVoter(uint newsId ,address sender) {\n    bool isValid = true;\n    uint[] memory votes = voters[sender];\n\n    if( votes.length > 0) {        \n        for(uint i=0;i<votes.length;i++){\n            if(votes[i] == newsId) {\n                isValid = false;\n            }\n        }\n    }\n    require(isValid,\"Not a Valid Voter\");\n    _;\n}\n\nmodifier onlyOwn {\n    require(msg.sender == contractOwner,\"Not An aowner \");\n    _;\n}\n   \n    constructor () {\n        contractOwner = msg.sender;\n        rewardValue = 1 * 10 ** decimals();\n        incrementToken =  10000 * 10 ** decimals();\n        addNews(\"Trump lost in the Election\");\n        addNews(\"Russia Plans to drop Nuclear weapons on Ukraine\");\n        addNews(\"India lost the T-20 World Cup\");\n        addNews(\"Canadian people lose thier trust in their Prime Minister\");\n    }\n\n    function addNews (string memory _name) private {\n        newsCount ++;\n        newses[newsCount] = News(newsCount, _name, 0,0,0,\"Tentaive News\");\n    }\n\n function vote (uint _newsId) validVoter(_newsId,msg.sender) public {\n\n        voters[msg.sender].push(_newsId);\n        newsVoterMappings[_newsId].push(msg.sender);\n\n        // update news vote Count\n        newses[_newsId].voteCount ++;\n        newses[_newsId].upVote ++;\n        result(_newsId);        // trigger voted event\n        emit votedEvent(_newsId);\n    }\n\n\n    function incentivizeVoter(uint _newsId) onlyOwn public {\n        uint balance = balanceOf(contractOwner);\n        uint totalAmount = getTotalAmountNeeded(_newsId);\n        if ( balance <= totalAmount) {\n            mint(contractOwner,incrementToken+totalAmount);\n        }\n        for(uint i=0;i< newsVoterMappings[_newsId].length;i++){\n            transfer(newsVoterMappings[_newsId][i],rewardValue);\n        }\n    }\n\n    function getTotalAmountNeeded(uint _newsId) public view returns (uint) {\n        return newsVoterMappings[_newsId].length * rewardValue;\n    }\n\n    function downVote (uint _newsId) validVoter(_newsId,msg.sender) public {\n\n        voters[msg.sender].push(_newsId);\n        newsVoterMappings[_newsId].push(msg.sender);\n        // update news vote Count\n        newses[_newsId].voteCount ++;\n        newses[_newsId].downVote ++;\n        result(_newsId);\n        // trigger voted event\n        emit votedEvent(_newsId);\n    }\n\n    function result(uint _newsId ) public {\n        if(newses[_newsId].upVote>newses[_newsId].downVote){\n            newses[_newsId].verdict = \"Real News\";\n        }\n        else if(newses[_newsId].upVote<newses[_newsId].downVote){\n            newses[_newsId].verdict = \"Fake News\";\n        }\n        else{\n            newses[_newsId].verdict = \"Tentative News\";\n        }\n    }\n\n    function getTokens() public view returns (uint) {\n        return balanceOf(msg.sender);\n    }\n\n    \n    function isOwnerContract() public view returns (bool) {\n        if (msg.sender == contractOwner) {\n            return true;\n        }\n        return false;\n    }\n    function getContractOwner() public view returns (address) {\n        return contractOwner;\n    }function caller() public view returns (address) {\n        return msg.sender;\n    }\n  \n}\n",
  "sourcePath": "C:\\Users\\sumanth\\Downloads\\FakeNews Final\\FakeNews\\FakeNews\\contracts\\FakeNews.sol",
  "compiler": {
    "name": "solc",
    "version": "0.8.17+commit.8df45f5f.Emscripten.clang"
  },
  "schemaVersion": "3.4.10",
  "updatedAt": "2022-12-09T04:37:01.238Z",
  "networkType": "ethereum",
  "devdoc": {
    "kind": "dev",
    "methods": {
      "allowance(address,address)": {
        "details": "See {IERC20-allowance}."
      },
      "approve(address,uint256)": {
        "details": "See {IERC20-approve}. NOTE: If `amount` is the maximum `uint256`, the allowance is not updated on `transferFrom`. This is semantically equivalent to an infinite approval. Requirements: - `spender` cannot be the zero address."
      },
      "balanceOf(address)": {
        "details": "See {IERC20-balanceOf}."
      },
      "decimals()": {
        "details": "Returns the number of decimals used to get its user representation. For example, if `decimals` equals `2`, a balance of `505` tokens should be displayed to a user as `5.05` (`505 / 10 ** 2`). Tokens usually opt for a value of 18, imitating the relationship between Ether and Wei. This is the value {ERC20} uses, unless this function is overridden; NOTE: This information is only used for _display_ purposes: it in no way affects any of the arithmetic of the contract, including {IERC20-balanceOf} and {IERC20-transfer}."
      },
      "decreaseAllowance(address,uint256)": {
        "details": "Atomically decreases the allowance granted to `spender` by the caller. This is an alternative to {approve} that can be used as a mitigation for problems described in {IERC20-approve}. Emits an {Approval} event indicating the updated allowance. Requirements: - `spender` cannot be the zero address. - `spender` must have allowance for the caller of at least `subtractedValue`."
      },
      "increaseAllowance(address,uint256)": {
        "details": "Atomically increases the allowance granted to `spender` by the caller. This is an alternative to {approve} that can be used as a mitigation for problems described in {IERC20-approve}. Emits an {Approval} event indicating the updated allowance. Requirements: - `spender` cannot be the zero address."
      },
      "name()": {
        "details": "Returns the name of the token."
      },
      "owner()": {
        "details": "Returns the address of the current owner."
      },
      "renounceOwnership()": {
        "details": "Leaves the contract without owner. It will not be possible to call `onlyOwner` functions anymore. Can only be called by the current owner. NOTE: Renouncing ownership will leave the contract without an owner, thereby removing any functionality that is only available to the owner."
      },
      "symbol()": {
        "details": "Returns the symbol of the token, usually a shorter version of the name."
      },
      "totalSupply()": {
        "details": "See {IERC20-totalSupply}."
      },
      "transfer(address,uint256)": {
        "details": "See {IERC20-transfer}. Requirements: - `to` cannot be the zero address. - the caller must have a balance of at least `amount`."
      },
      "transferFrom(address,address,uint256)": {
        "details": "See {IERC20-transferFrom}. Emits an {Approval} event indicating the updated allowance. This is not required by the EIP. See the note at the beginning of {ERC20}. NOTE: Does not update the allowance if the current allowance is the maximum `uint256`. Requirements: - `from` and `to` cannot be the zero address. - `from` must have a balance of at least `amount`. - the caller must have allowance for ``from``'s tokens of at least `amount`."
      },
      "transferOwnership(address)": {
        "details": "Transfers ownership of the contract to a new account (`newOwner`). Can only be called by the current owner."
      }
    },
    "version": 1
  },
  "userdoc": {
    "kind": "user",
    "methods": {},
    "version": 1
  }
}